{
  "contractName": "Betvote",
  "abi": [
    {
      "constant": true,
      "inputs": [
        {
          "name": "",
          "type": "uint256"
        }
      ],
      "name": "entityB",
      "outputs": [
        {
          "name": "entityAddress",
          "type": "address"
        },
        {
          "name": "amount",
          "type": "uint256"
        },
        {
          "name": "betTo",
          "type": "string"
        },
        {
          "name": "position",
          "type": "uint256"
        }
      ],
      "payable": false,
      "stateMutability": "view",
      "type": "function"
    },
    {
      "constant": true,
      "inputs": [
        {
          "name": "",
          "type": "uint256"
        }
      ],
      "name": "entityA",
      "outputs": [
        {
          "name": "entityAddress",
          "type": "address"
        },
        {
          "name": "amount",
          "type": "uint256"
        },
        {
          "name": "betTo",
          "type": "string"
        },
        {
          "name": "position",
          "type": "uint256"
        }
      ],
      "payable": false,
      "stateMutability": "view",
      "type": "function"
    },
    {
      "inputs": [],
      "payable": false,
      "stateMutability": "nonpayable",
      "type": "constructor"
    },
    {
      "anonymous": false,
      "inputs": [
        {
          "indexed": false,
          "name": "winner",
          "type": "string"
        }
      ],
      "name": "winnerAnnounced",
      "type": "event"
    },
    {
      "anonymous": false,
      "inputs": [
        {
          "indexed": false,
          "name": "entityAddress",
          "type": "address"
        },
        {
          "indexed": false,
          "name": "amount",
          "type": "uint256"
        },
        {
          "indexed": false,
          "name": "betTo",
          "type": "string"
        },
        {
          "indexed": false,
          "name": "position",
          "type": "uint256"
        }
      ],
      "name": "test_entity",
      "type": "event"
    },
    {
      "constant": false,
      "inputs": [
        {
          "name": "_a",
          "type": "string"
        },
        {
          "name": "_b",
          "type": "string"
        }
      ],
      "name": "compare",
      "outputs": [
        {
          "name": "",
          "type": "int256"
        }
      ],
      "payable": false,
      "stateMutability": "nonpayable",
      "type": "function"
    },
    {
      "constant": false,
      "inputs": [
        {
          "name": "_a",
          "type": "string"
        },
        {
          "name": "_b",
          "type": "string"
        }
      ],
      "name": "equal",
      "outputs": [
        {
          "name": "",
          "type": "bool"
        }
      ],
      "payable": false,
      "stateMutability": "nonpayable",
      "type": "function"
    },
    {
      "constant": false,
      "inputs": [
        {
          "name": "betTo",
          "type": "string"
        }
      ],
      "name": "getBet",
      "outputs": [],
      "payable": true,
      "stateMutability": "payable",
      "type": "function"
    },
    {
      "constant": false,
      "inputs": [
        {
          "name": "_to",
          "type": "address"
        },
        {
          "name": "_value",
          "type": "uint256"
        }
      ],
      "name": "transferEther",
      "outputs": [],
      "payable": true,
      "stateMutability": "payable",
      "type": "function"
    },
    {
      "constant": false,
      "inputs": [
        {
          "name": "x",
          "type": "uint256"
        }
      ],
      "name": "sqrt",
      "outputs": [
        {
          "name": "y",
          "type": "uint256"
        }
      ],
      "payable": false,
      "stateMutability": "nonpayable",
      "type": "function"
    },
    {
      "constant": false,
      "inputs": [
        {
          "name": "_winner",
          "type": "string"
        }
      ],
      "name": "setWinner",
      "outputs": [],
      "payable": true,
      "stateMutability": "payable",
      "type": "function"
    },
    {
      "constant": false,
      "inputs": [],
      "name": "kill",
      "outputs": [],
      "payable": false,
      "stateMutability": "nonpayable",
      "type": "function"
    },
    {
      "constant": false,
      "inputs": [],
      "name": "getEntityA",
      "outputs": [],
      "payable": false,
      "stateMutability": "nonpayable",
      "type": "function"
    },
    {
      "constant": false,
      "inputs": [
        {
          "name": "number",
          "type": "uint256"
        }
      ],
      "name": "test",
      "outputs": [],
      "payable": false,
      "stateMutability": "nonpayable",
      "type": "function"
    }
  ],
  "bytecode": "0x6060604052341561000f57600080fd5b33600360006101000a81548173ffffffffffffffffffffffffffffffffffffffff021916908373ffffffffffffffffffffffffffffffffffffffff160217905550611aae8061005f6000396000f3006060604052600436106100af576000357c0100000000000000000000000000000000000000000000000000000000900463ffffffff16806305b1137b146100b4578063078d1600146100eb578063148e44861461013d5780631ee3ba581461021a5780632311ccba1461022f57806329e99f071461030c5780633a96fdd71461032f57806341c0e1b5146103e357806346bdca9a146103f8578063677342ce146104b0578063c35dee34146104e7575b600080fd5b6100e9600480803573ffffffffffffffffffffffffffffffffffffffff16906020019091908035906020019091905050610539565b005b61013b600480803590602001908201803590602001908080601f0160208091040260200160405190810160405280939291908181526020018383808284378201915050505050509190505061057d565b005b341561014857600080fd5b61015e6004808035906020019091905050610b0c565b604051808573ffffffffffffffffffffffffffffffffffffffff1673ffffffffffffffffffffffffffffffffffffffff16815260200184815260200180602001838152602001828103825284818151815260200191508051906020019080838360005b838110156101dc5780820151818401526020810190506101c1565b50505050905090810190601f1680156102095780820380516001836020036101000a031916815260200191505b509550505050505060405180910390f35b341561022557600080fd5b61022d610c03565b005b341561023a57600080fd5b6102506004808035906020019091905050610dc2565b604051808573ffffffffffffffffffffffffffffffffffffffff1673ffffffffffffffffffffffffffffffffffffffff16815260200184815260200180602001838152602001828103825284818151815260200191508051906020019080838360005b838110156102ce5780820151818401526020810190506102b3565b50505050905090810190601f1680156102fb5780820380516001836020036101000a031916815260200191505b509550505050505060405180910390f35b341561031757600080fd5b61032d6004808035906020019091905050610eb9565b005b341561033a57600080fd5b6103cd600480803590602001908201803590602001908080601f0160208091040260200160405190810160405280939291908181526020018383808284378201915050505050509190803590602001908201803590602001908080601f01602080910402602001604051908101604052809392919081815260200183838082843782019150505050505091905050610fe9565b6040518082815260200191505060405180910390f35b34156103ee57600080fd5b6103f66112ad565b005b341561040357600080fd5b610496600480803590602001908201803590602001908080601f0160208091040260200160405190810160405280939291908181526020018383808284378201915050505050509190803590602001908201803590602001908080601f01602080910402602001604051908101604052809392919081815260200183838082843782019150505050505091905050611344565b604051808215151515815260200191505060405180910390f35b34156104bb57600080fd5b6104d1600480803590602001909190505061135a565b6040518082815260200191505060405180910390f35b610537600480803590602001908201803590602001908080601f016020809104026020016040519081016040528093929190818152602001838380828437820191505050505050919050506113a5565b005b8173ffffffffffffffffffffffffffffffffffffffff166108fc829081150290604051600060405180830381858888f19350505050151561057957600080fd5b5050565b610585611810565b60008034915060008211151561059a57600080fd5b3390506105dc846040805190810160405280600181526020017f6100000000000000000000000000000000000000000000000000000000000000815250611344565b156108545760008080549050141561071d5780836000019073ffffffffffffffffffffffffffffffffffffffff16908173ffffffffffffffffffffffffffffffffffffffff168152505083836040018190525081836020018181525050600183606001818152505060016000805480600101828161065a9190611855565b9160005260206000209060040201600086909190915060008201518160000160006101000a81548173ffffffffffffffffffffffffffffffffffffffff021916908373ffffffffffffffffffffffffffffffffffffffff1602179055506020820151816001015560408201518160020190805190602001906106dd929190611887565b506060820151816003015550505050610718600260009054906101000a900473ffffffffffffffffffffffffffffffffffffffff1683610539565b61084f565b80836000019073ffffffffffffffffffffffffffffffffffffffff16908173ffffffffffffffffffffffffffffffffffffffff1681525050838360400181905250818360200181815250506001600080549050018360600181815250506001600080548060010182816107909190611855565b9160005260206000209060040201600086909190915060008201518160000160006101000a81548173ffffffffffffffffffffffffffffffffffffffff021916908373ffffffffffffffffffffffffffffffffffffffff160217905550602082015181600101556040820151816002019080519060200190610813929190611887565b50606082015181600301555050505061084e600260009054906101000a900473ffffffffffffffffffffffffffffffffffffffff1683610539565b5b610b06565b610893846040805190810160405280600181526020017f6200000000000000000000000000000000000000000000000000000000000000815250611344565b15610b05576000808054905014156109d35780836000019073ffffffffffffffffffffffffffffffffffffffff16908173ffffffffffffffffffffffffffffffffffffffff168152505083836040018190525081836020018181525050600183606001818152505060018080548060010182816109109190611855565b9160005260206000209060040201600086909190915060008201518160000160006101000a81548173ffffffffffffffffffffffffffffffffffffffff021916908373ffffffffffffffffffffffffffffffffffffffff160217905550602082015181600101556040820151816002019080519060200190610993929190611887565b5060608201518160030155505050506109ce600260009054906101000a900473ffffffffffffffffffffffffffffffffffffffff1683610539565b610b04565b80836000019073ffffffffffffffffffffffffffffffffffffffff16908173ffffffffffffffffffffffffffffffffffffffff1681525050838360400181905250818360200181815250506001600080549050018360600181815250506001808054806001018281610a459190611855565b9160005260206000209060040201600086909190915060008201518160000160006101000a81548173ffffffffffffffffffffffffffffffffffffffff021916908373ffffffffffffffffffffffffffffffffffffffff160217905550602082015181600101556040820151816002019080519060200190610ac8929190611887565b506060820151816003015550505050610b03600260009054906101000a900473ffffffffffffffffffffffffffffffffffffffff1683610539565b5b5b5b50505050565b600181815481101515610b1b57fe5b90600052602060002090600402016000915090508060000160009054906101000a900473ffffffffffffffffffffffffffffffffffffffff1690806001015490806002018054600181600116156101000203166002900480601f016020809104026020016040519081016040528092919081815260200182805460018160011615610100020316600290048015610bf35780601f10610bc857610100808354040283529160200191610bf3565b820191906000526020600020905b815481529060010190602001808311610bd657829003601f168201915b5050505050908060030154905084565b60008090505b600080549050811015610dbf577fdd63b629c72a6d4e10d48401e16115061c190659c3f64d2a95226b0c9b73a6df600082815481101515610c4657fe5b906000526020600020906004020160000160009054906101000a900473ffffffffffffffffffffffffffffffffffffffff16600083815481101515610c8757fe5b906000526020600020906004020160010154600084815481101515610ca857fe5b9060005260206000209060040201600201600085815481101515610cc857fe5b906000526020600020906004020160030154604051808573ffffffffffffffffffffffffffffffffffffffff1673ffffffffffffffffffffffffffffffffffffffff16815260200184815260200180602001838152602001828103825284818154600181600116156101000203166002900481526020019150805460018160011615610100020316600290048015610da15780601f10610d7657610100808354040283529160200191610da1565b820191906000526020600020905b815481529060010190602001808311610d8457829003601f168201915b50509550505050505060405180910390a18080600101915050610c09565b50565b600081815481101515610dd157fe5b90600052602060002090600402016000915090508060000160009054906101000a900473ffffffffffffffffffffffffffffffffffffffff1690806001015490806002018054600181600116156101000203166002900480601f016020809104026020016040519081016040528092919081815260200182805460018160011615610100020316600290048015610ea95780601f10610e7e57610100808354040283529160200191610ea9565b820191906000526020600020905b815481529060010190602001808311610e8c57829003601f168201915b5050505050908060030154905084565b600160008054806001018281610ecf9190611855565b9160005260206000209060040201600060806040519081016040528073ca35b7d915458ef540ade6068dfe2f44e8fa733c73ffffffffffffffffffffffffffffffffffffffff1681526020018681526020016040805190810160405280600181526020017f61000000000000000000000000000000000000000000000000000000000000008152508152602001600080549050815250909190915060008201518160000160006101000a81548173ffffffffffffffffffffffffffffffffffffffff021916908373ffffffffffffffffffffffffffffffffffffffff160217905550602082015181600101556040820151816002019080519060200190610fd7929190611887565b50606082015181600301555050505050565b6000610ff3611907565b610ffb611907565b60008086935085925083519150818351101561101657825191505b600090505b8181101561125957828181518110151561103157fe5b9060200101517f010000000000000000000000000000000000000000000000000000000000000090047f0100000000000000000000000000000000000000000000000000000000000000027effffffffffffffffffffffffffffffffffffffffffffffffffffffffffffff191684828151811015156110ac57fe5b9060200101517f010000000000000000000000000000000000000000000000000000000000000090047f0100000000000000000000000000000000000000000000000000000000000000027effffffffffffffffffffffffffffffffffffffffffffffffffffffffffffff19161015611147577fffffffffffffffffffffffffffffffffffffffffffffffffffffffffffffffff94506112a3565b828181518110151561115557fe5b9060200101517f010000000000000000000000000000000000000000000000000000000000000090047f0100000000000000000000000000000000000000000000000000000000000000027effffffffffffffffffffffffffffffffffffffffffffffffffffffffffffff191684828151811015156111d057fe5b9060200101517f010000000000000000000000000000000000000000000000000000000000000090047f0100000000000000000000000000000000000000000000000000000000000000027effffffffffffffffffffffffffffffffffffffffffffffffffffffffffffff1916111561124c57600194506112a3565b808060010191505061101b565b82518451101561128b577fffffffffffffffffffffffffffffffffffffffffffffffffffffffffffffffff94506112a3565b82518451111561129e57600194506112a3565b600094505b5050505092915050565b600360009054906101000a900473ffffffffffffffffffffffffffffffffffffffff1673ffffffffffffffffffffffffffffffffffffffff163373ffffffffffffffffffffffffffffffffffffffff1614151561130957600080fd5b600360009054906101000a900473ffffffffffffffffffffffffffffffffffffffff1673ffffffffffffffffffffffffffffffffffffffff16ff5b6000806113518484610fe9565b14905092915050565b60008060026001840181151561136c57fe5b0490508291505b8181101561139f57809150600281828581151561138c57fe5b040181151561139757fe5b049050611373565b50919050565b600080600080600080600080600360009054906101000a900473ffffffffffffffffffffffffffffffffffffffff1673ffffffffffffffffffffffffffffffffffffffff163373ffffffffffffffffffffffffffffffffffffffff1614151561140d57600080fd5b886004908051906020019061142392919061191b565b506114fd60048054600181600116156101000203166002900480601f0160208091040260200160405190810160405280929190818152602001828054600181600116156101000203166002900480156114bd5780601f10611492576101008083540402835291602001916114bd565b820191906000526020600020905b8154815290600101906020018083116114a057829003601f168201915b50505050506040805190810160405280600181526020017f6100000000000000000000000000000000000000000000000000000000000000815250611344565b1561160a576000805490509750611513886116f0565b96506006549550611525600554611781565b9450600093505b600080549050841015611605578460055460008681548110151561154c57fe5b90600052602060002090600402016001015481151561156757fe5b040292508661159560008681548110151561157e57fe5b9060005260206000209060040201600301546117ef565b019150612710600654838502028115156115ab57fe5b0490506115f86000858154811015156115c057fe5b906000526020600020906004020160000160009054906101000a900473ffffffffffffffffffffffffffffffffffffffff1682610539565b838060010194505061152c565b6116e5565b6116e360048054600181600116156101000203166002900480601f0160208091040260200160405190810160405280929190818152602001828054600181600116156101000203166002900480156116a35780601f10611678576101008083540402835291602001916116a3565b820191906000526020600020905b81548152906001019060200180831161168657829003601f168201915b50505050506040805190810160405280600181526020017f6200000000000000000000000000000000000000000000000000000000000000815250611344565b505b505050505050505050565b60006064821015611708576117036112ad565b61177b565b6101f482101561171b57600a905061177c565b6103e882101561172e57601e905061177c565b6107d0821015611741576032905061177c565b611388821015611754576046905061177c565b611b58821015611767576050905061177c565b61271082101561177a57605a905061177c565b5b5b919050565b6000606482101561179557606490506117ea565b6103e88210156117a9576103e890506117ea565b6127108210156117bd5761271090506117ea565b620186a08210156117d357620186a090506117ea565b620f42408210156117e957620f424090506117ea565b5b919050565b600060646117fc8361135a565b600181151561180757fe5b04029050919050565b608060405190810160405280600073ffffffffffffffffffffffffffffffffffffffff1681526020016000815260200161184861199b565b8152602001600081525090565b8154818355818115116118825760040281600402836000526020600020918201910161188191906119af565b5b505050565b828054600181600116156101000203166002900490600052602060002090601f016020900481019282601f106118c857805160ff19168380011785556118f6565b828001600101855582156118f6579182015b828111156118f55782518255916020019190600101906118da565b5b5090506119039190611a15565b5090565b602060405190810160405280600081525090565b828054600181600116156101000203166002900490600052602060002090601f016020900481019282601f1061195c57805160ff191683800117855561198a565b8280016001018555821561198a579182015b8281111561198957825182559160200191906001019061196e565b5b5090506119979190611a15565b5090565b602060405190810160405280600081525090565b611a1291905b80821115611a0e57600080820160006101000a81549073ffffffffffffffffffffffffffffffffffffffff021916905560018201600090556002820160006119fd9190611a3a565b6003820160009055506004016119b5565b5090565b90565b611a3791905b80821115611a33576000816000905550600101611a1b565b5090565b90565b50805460018160011615610100020316600290046000825580601f10611a605750611a7f565b601f016020900490600052602060002090810190611a7e9190611a15565b5b505600a165627a7a723058203725b5bfadd54fc2da5bc47c90881179d98d9a792be59eb8de8934011eb3f6300029",
  "source": "pragma solidity ^0.4.21;\n\n\n\ncontract Betvote {\n\n    struct EntityStruct {\n        // The address\n        address entityAddress;\n        // Amount of bet in wei\n        uint256 amount;\n        // you are betting to?\n        string betTo;\n        uint256 position;\n    }\n\n    EntityStruct[] public entityA;\n    EntityStruct[] public entityB;\n\n\n    // global variable\n\n    address fundingAddress;\n    address owner;\n    string winner;\n    uint256 totalFundA;\n    uint256 totalFundB;\n    uint256 rewardRatio;\n\n    event winnerAnnounced(string winner);\n\n\n\n    // Ref \"github.com/ethereum/dapp-bin/library/stringUtils.sol\";\n    function compare(string _a, string _b) public returns (int) {\n        bytes memory a = bytes(_a);\n        bytes memory b = bytes(_b);\n        uint minLength = a.length;\n        if (b.length < minLength) minLength = b.length;\n        //@todo unroll the loop into increments of 32 and do full 32 byte comparisons\n        for (uint i = 0; i < minLength; i ++)\n            if (a[i] < b[i])\n                return -1;\n            else if (a[i] > b[i])\n                return 1;\n        if (a.length < b.length)\n            return -1;\n        else if (a.length > b.length)\n            return 1;\n        else\n            return 0;\n    }\n    /// @dev Compares two strings and returns true iff they are equal.\n    function equal(string _a, string _b) public returns (bool) {\n        return compare(_a, _b) == 0;\n    }\n\n\n\n    function Betvote() public {\n        owner = msg.sender;\n\n    }\n\n\n\n    // get array length\n    //    function getArrayLength() public constant returns(uint count) {\n    //        return array.length;\n    //    }\n\n\n\n    function getBet(string betTo) public payable {\n        EntityStruct memory newEntity;\n        uint256 value = msg.value;\n        require (value > 0);\n        address userAddr = msg.sender;\n\n        if (equal(betTo, \"a\")){\n            if(entityA.length == 0){\n                // set entity data\n                newEntity.entityAddress = userAddr;\n                newEntity.betTo = betTo;\n                newEntity.amount = value;\n                newEntity.position = 1;\n                //push data entity to\n                entityA.push(newEntity)-1;\n                transferEther(fundingAddress, value);\n\n\n            }\n            else {\n                // set entity data\n                newEntity.entityAddress = userAddr;\n                newEntity.betTo = betTo;\n                newEntity.amount = value;\n                newEntity.position = entityA.length+1;\n                //push data entity to\n                entityA.push(newEntity)-1;\n                transferEther(fundingAddress, value);\n\n            }\n\n        }\n\n        else if (equal(betTo, \"b\")){\n            if(entityA.length == 0){\n                // set entity data\n                newEntity.entityAddress = userAddr;\n                newEntity.betTo = betTo;\n                newEntity.amount = value;\n                newEntity.position = 1;\n                //push data entity to\n                entityB.push(newEntity)-1;\n                transferEther(fundingAddress, value);\n\n            }\n            else {\n                // set entity data\n                newEntity.entityAddress = userAddr;\n                newEntity.betTo = betTo;\n                newEntity.amount = value;\n                newEntity.position = entityA.length+1;\n                //push data entity to\n                entityB.push(newEntity)-1;\n                transferEther(fundingAddress, value);\n\n            }\n\n        }\n\n\n    }\n\n    function transferEther(address _to, uint256 _value) public payable {\n        _to.transfer(_value);\n    }\n\n    modifier ownerOnly {\n        require(msg.sender == owner);\n        _;\n    }\n\n\n    function setRewardRatio(uint256 size) internal returns(uint256){\n        if ( size < 100){\n            kill();\n        }\n        else if (size < 500){\n            return 10;\n        }\n        else if (size < 1000){\n            return 30;\n        }\n        else if (size < 2000){\n            return 50;\n\n        }\n        else if (size < 5000){\n            return 70;\n\n        }\n        else if (size < 7000){\n            return 80;\n\n        }\n        else if (size < 10000){\n            return 90;\n\n        }\n\n    }\n\n    function fundSizePrecision (uint256 fundSize) internal returns(uint256){\n        if ( fundSize < 100){\n            return 100;\n        }\n        else if (fundSize < 1000){\n            return 1000;\n        }\n        else if (fundSize < 10000){\n            return 10000;\n        }\n        else if (fundSize < 100000){\n            return 100000;\n        }\n        else if (fundSize < 1000000){\n            return 1000000;\n        }\n    }\n\n    // Refers to \"https://github.com/ethereum/dapp-bin/pull/50\"\n    // gives floating point value????\n    function sqrt(uint x) public returns (uint y) {\n        uint z = (x + 1) / 2;\n        y = x;\n        while (z < y) {\n            y = z;\n            z = (x / z + z) / 2;\n        }\n    }\n\n    function calculateYourReward(uint256 position) internal returns(uint256){\n        // precision 100\n        return (1/sqrt(position))*100;\n\n    }\n\n    function setWinner (string _winner) public payable ownerOnly{\n        winner =_winner;\n\n        // this returns int\n        if(equal(winner, \"a\")){\n            uint256 size = entityA.length;\n            // precision 100\n            uint256 RewardRatio100 = setRewardRatio(size);\n            uint256 fund = totalFundB;\n            // precision varies\n            uint256 precision = fundSizePrecision(totalFundA);\n\n            for (uint i = 0; i<entityA.length; i++) {\n                uint256 participationRatio100x = entityA[i].amount/totalFundA * precision;\n\n                uint256 Ratio100x = calculateYourReward( entityA[i].position)+RewardRatio100;\n\n                uint256 result = participationRatio100x*Ratio100x*totalFundB/10000;\n\n                transferEther(entityA[i].entityAddress, result);\n\n            }\n\n\n\n\n        }\n        /// fill it in\n        else if(equal(winner, \"b\")){\n\n\n        }\n\n\n        // what does this do?\n        // emit winnerAnnounced(winner);\n\n    }\n\n    function kill() public ownerOnly {\n        selfdestruct(owner);\n    }\n\n\n\n\n    // for test purposes\n    // test\n    // test\n    // test\n    // test\n\n    event test_entity(address entityAddress, uint256 amount, string betTo, uint256 position);\n\n    function getEntityA () public {\n        for (uint i = 0; i<entityA.length; i++) {\n            emit test_entity(entityA[i].entityAddress, entityA[i].amount, entityA[i].betTo, entityA[i].position );\n        }\n    }\n\n\n\n    function test (uint256 number) public {\n\n        entityA.push(EntityStruct(0xCA35b7d915458EF540aDe6068dFe2F44E8fa733c, number, 'a', entityA.length))-1;\n//        entityA.push(EntityStruct(0xCA35b7d915458EF540aDe6068dFe2F44E8fa733c, 1286217770049595958, 'a', entityA.length))-1;\n\n    }\n\n}\n",
  "sourcePath": "/Users/dennis/WK/WK-WorkSpace/truffle-dev/contracts/Betvote.sol",
  "compiler": {
    "name": "solc",
    "version": "0.4.21+commit.dfe3193c.Emscripten.clang"
  },
  "schemaVersion": "2.0.0",
  "updatedAt": "2018-04-22T01:20:43.025Z"
}