{
  "contractName": "Betvote",
  "abi": [
    {
      "constant": true,
      "inputs": [
        {
          "name": "",
          "type": "uint256"
        }
      ],
      "name": "entityB",
      "outputs": [
        {
          "name": "entityAddress",
          "type": "address"
        },
        {
          "name": "amount",
          "type": "uint256"
        },
        {
          "name": "betTo",
          "type": "string"
        },
        {
          "name": "position",
          "type": "uint256"
        }
      ],
      "payable": false,
      "stateMutability": "view",
      "type": "function"
    },
    {
      "constant": true,
      "inputs": [
        {
          "name": "",
          "type": "uint256"
        }
      ],
      "name": "entityA",
      "outputs": [
        {
          "name": "entityAddress",
          "type": "address"
        },
        {
          "name": "amount",
          "type": "uint256"
        },
        {
          "name": "betTo",
          "type": "string"
        },
        {
          "name": "position",
          "type": "uint256"
        }
      ],
      "payable": false,
      "stateMutability": "view",
      "type": "function"
    },
    {
      "constant": true,
      "inputs": [],
      "name": "totalFundB",
      "outputs": [
        {
          "name": "",
          "type": "uint256"
        }
      ],
      "payable": false,
      "stateMutability": "view",
      "type": "function"
    },
    {
      "constant": true,
      "inputs": [],
      "name": "totalFundC",
      "outputs": [
        {
          "name": "",
          "type": "uint256"
        }
      ],
      "payable": false,
      "stateMutability": "view",
      "type": "function"
    },
    {
      "constant": true,
      "inputs": [
        {
          "name": "",
          "type": "uint256"
        }
      ],
      "name": "temporaryRatio_global",
      "outputs": [
        {
          "name": "",
          "type": "uint256"
        }
      ],
      "payable": false,
      "stateMutability": "view",
      "type": "function"
    },
    {
      "constant": true,
      "inputs": [],
      "name": "totalFundA",
      "outputs": [
        {
          "name": "",
          "type": "uint256"
        }
      ],
      "payable": false,
      "stateMutability": "view",
      "type": "function"
    },
    {
      "constant": true,
      "inputs": [
        {
          "name": "",
          "type": "uint256"
        }
      ],
      "name": "entityC",
      "outputs": [
        {
          "name": "entityAddress",
          "type": "address"
        },
        {
          "name": "amount",
          "type": "uint256"
        },
        {
          "name": "betTo",
          "type": "string"
        },
        {
          "name": "position",
          "type": "uint256"
        }
      ],
      "payable": false,
      "stateMutability": "view",
      "type": "function"
    },
    {
      "inputs": [],
      "payable": false,
      "stateMutability": "nonpayable",
      "type": "constructor"
    },
    {
      "anonymous": false,
      "inputs": [
        {
          "indexed": false,
          "name": "winner",
          "type": "string"
        }
      ],
      "name": "winnerAnnounced",
      "type": "event"
    },
    {
      "anonymous": false,
      "inputs": [
        {
          "indexed": false,
          "name": "_to",
          "type": "address"
        },
        {
          "indexed": false,
          "name": "_betTo",
          "type": "string"
        },
        {
          "indexed": false,
          "name": "amount",
          "type": "uint256"
        }
      ],
      "name": "newBet",
      "type": "event"
    },
    {
      "anonymous": false,
      "inputs": [
        {
          "indexed": false,
          "name": "sumTemporaryRatio",
          "type": "uint256"
        },
        {
          "indexed": false,
          "name": "tempRatio",
          "type": "uint256"
        },
        {
          "indexed": false,
          "name": "amount",
          "type": "uint256"
        },
        {
          "indexed": false,
          "name": "Ratio100x",
          "type": "uint256"
        }
      ],
      "name": "setWinnerPrinter",
      "type": "event"
    },
    {
      "constant": false,
      "inputs": [
        {
          "name": "_a",
          "type": "string"
        },
        {
          "name": "_b",
          "type": "string"
        }
      ],
      "name": "compare",
      "outputs": [
        {
          "name": "",
          "type": "int256"
        }
      ],
      "payable": false,
      "stateMutability": "nonpayable",
      "type": "function"
    },
    {
      "constant": true,
      "inputs": [
        {
          "name": "s1",
          "type": "string"
        },
        {
          "name": "s2",
          "type": "string"
        }
      ],
      "name": "compareStringsbyBytes",
      "outputs": [
        {
          "name": "",
          "type": "bool"
        }
      ],
      "payable": false,
      "stateMutability": "pure",
      "type": "function"
    },
    {
      "constant": false,
      "inputs": [
        {
          "name": "betTo",
          "type": "string"
        }
      ],
      "name": "getBet",
      "outputs": [],
      "payable": true,
      "stateMutability": "payable",
      "type": "function"
    },
    {
      "constant": false,
      "inputs": [
        {
          "name": "_to",
          "type": "address"
        },
        {
          "name": "amount",
          "type": "uint256"
        }
      ],
      "name": "transferEther",
      "outputs": [],
      "payable": true,
      "stateMutability": "payable",
      "type": "function"
    },
    {
      "constant": false,
      "inputs": [
        {
          "name": "x",
          "type": "uint256"
        }
      ],
      "name": "sqrt",
      "outputs": [
        {
          "name": "y",
          "type": "uint256"
        }
      ],
      "payable": false,
      "stateMutability": "nonpayable",
      "type": "function"
    },
    {
      "constant": false,
      "inputs": [
        {
          "name": "_winner",
          "type": "string"
        }
      ],
      "name": "setWinner",
      "outputs": [],
      "payable": true,
      "stateMutability": "payable",
      "type": "function"
    },
    {
      "constant": false,
      "inputs": [
        {
          "name": "sumTemporaryRatio",
          "type": "uint256"
        },
        {
          "name": "temporaryRatio",
          "type": "uint256[]"
        }
      ],
      "name": "distributeToWinner",
      "outputs": [],
      "payable": true,
      "stateMutability": "payable",
      "type": "function"
    }
  ],
  "bytecode": "0x6060604052341561000f57600080fd5b33600360006101000a81548173ffffffffffffffffffffffffffffffffffffffff021916908373ffffffffffffffffffffffffffffffffffffffff16021790555061243c8061005f6000396000f3006060604052600436106100d0576000357c0100000000000000000000000000000000000000000000000000000000900463ffffffff16806305b1137b146100d5578063078d16001461010c578063148e44861461015e5780632311ccba1461023b57806338e80aa914610318578063395b5168146103415780633a96fdd71461036a5780634b935f6c1461041e5780634f253f6614610455578063677342ce1461047e578063742bf027146104b5578063c2ff048214610592578063c35dee34146105ea578063e9a734ff1461063c575b600080fd5b61010a600480803573ffffffffffffffffffffffffffffffffffffffff169060200190919080359060200190919050506106f4565b005b61015c600480803590602001908201803590602001908080601f01602080910402602001604051908101604052809392919081815260200183838082843782019150505050505091905050610738565b005b341561016957600080fd5b61017f6004808035906020019091905050610ee1565b604051808573ffffffffffffffffffffffffffffffffffffffff1673ffffffffffffffffffffffffffffffffffffffff16815260200184815260200180602001838152602001828103825284818151815260200191508051906020019080838360005b838110156101fd5780820151818401526020810190506101e2565b50505050905090810190601f16801561022a5780820380516001836020036101000a031916815260200191505b509550505050505060405180910390f35b341561024657600080fd5b61025c6004808035906020019091905050610fd8565b604051808573ffffffffffffffffffffffffffffffffffffffff1673ffffffffffffffffffffffffffffffffffffffff16815260200184815260200180602001838152602001828103825284818151815260200191508051906020019080838360005b838110156102da5780820151818401526020810190506102bf565b50505050905090810190601f1680156103075780820380516001836020036101000a031916815260200191505b509550505050505060405180910390f35b341561032357600080fd5b61032b6110cf565b6040518082815260200191505060405180910390f35b341561034c57600080fd5b6103546110d5565b6040518082815260200191505060405180910390f35b341561037557600080fd5b610408600480803590602001908201803590602001908080601f0160208091040260200160405190810160405280939291908181526020018383808284378201915050505050509190803590602001908201803590602001908080601f016020809104026020016040519081016040528093929190818152602001838380828437820191505050505050919050506110db565b6040518082815260200191505060405180910390f35b341561042957600080fd5b61043f600480803590602001909190505061139f565b6040518082815260200191505060405180910390f35b341561046057600080fd5b6104686113c3565b6040518082815260200191505060405180910390f35b341561048957600080fd5b61049f60048080359060200190919050506113c9565b6040518082815260200191505060405180910390f35b34156104c057600080fd5b6104d66004808035906020019091905050611414565b604051808573ffffffffffffffffffffffffffffffffffffffff1673ffffffffffffffffffffffffffffffffffffffff16815260200184815260200180602001838152602001828103825284818151815260200191508051906020019080838360005b83811015610554578082015181840152602081019050610539565b50505050905090810190601f1680156105815780820380516001836020036101000a031916815260200191505b509550505050505060405180910390f35b6105e860048080359060200190919080359060200190820180359060200190808060200260200160405190810160405280939291908181526020018383602002808284378201915050505050509190505061150b565b005b61063a600480803590602001908201803590602001908080601f016020809104026020016040519081016040528093929190818152602001838380828437820191505050505050919050506119e5565b005b341561064757600080fd5b6106da600480803590602001908201803590602001908080601f0160208091040260200160405190810160405280939291908181526020018383808284378201915050505050509190803590602001908201803590602001908080601f01602080910402602001604051908101604052809392919081815260200183838082843782019150505050505091905050612078565b604051808215151515815260200191505060405180910390f35b8173ffffffffffffffffffffffffffffffffffffffff166108fc829081150290604051600060405180830381858888f19350505050151561073457600080fd5b5050565b610740612172565b60008060003411151561075257600080fd5b339150610794846040805190810160405280600181526020017f6100000000000000000000000000000000000000000000000000000000000000815250612078565b156109d45781836000019073ffffffffffffffffffffffffffffffffffffffff16908173ffffffffffffffffffffffffffffffffffffffff168152505083836040018190525034836020018181525050600160008054905001836060018181525050346005540160058190555060016000805480600101828161081791906121b7565b9160005260206000209060040201600086909190915060008201518160000160006101000a81548173ffffffffffffffffffffffffffffffffffffffff021916908373ffffffffffffffffffffffffffffffffffffffff16021790555060208201518160010155604082015181600201908051906020019061089a9291906121e9565b5060608201518160030155505050506108d5600360009054906101000a900473ffffffffffffffffffffffffffffffffffffffff16346106f4565b7fd006c5939a3d75ac710279c83a3632ef42cb33a853af1d0775410cb693e95cd6600360009054906101000a900473ffffffffffffffffffffffffffffffffffffffff168534604051808473ffffffffffffffffffffffffffffffffffffffff1673ffffffffffffffffffffffffffffffffffffffff16815260200180602001838152602001828103825284818151815260200191508051906020019080838360005b83811015610993578082015181840152602081019050610978565b50505050905090810190601f1680156109c05780820380516001836020036101000a031916815260200191505b5094505050505060405180910390a1610edb565b610a13846040805190810160405280600181526020017f6200000000000000000000000000000000000000000000000000000000000000815250612078565b15610c595734905081836000019073ffffffffffffffffffffffffffffffffffffffff16908173ffffffffffffffffffffffffffffffffffffffff1681525050838360400181905250808360200181815250506001808054905001836060018181525050806006600082825401925050819055506001808054806001018281610a9c91906121b7565b9160005260206000209060040201600086909190915060008201518160000160006101000a81548173ffffffffffffffffffffffffffffffffffffffff021916908373ffffffffffffffffffffffffffffffffffffffff160217905550602082015181600101556040820151816002019080519060200190610b1f9291906121e9565b506060820151816003015550505050610b5a600360009054906101000a900473ffffffffffffffffffffffffffffffffffffffff16346106f4565b7fd006c5939a3d75ac710279c83a3632ef42cb33a853af1d0775410cb693e95cd6600360009054906101000a900473ffffffffffffffffffffffffffffffffffffffff168534604051808473ffffffffffffffffffffffffffffffffffffffff1673ffffffffffffffffffffffffffffffffffffffff16815260200180602001838152602001828103825284818151815260200191508051906020019080838360005b83811015610c18578082015181840152602081019050610bfd565b50505050905090810190601f168015610c455780820380516001836020036101000a031916815260200191505b5094505050505060405180910390a1610eda565b610c98846040805190810160405280600181526020017f6300000000000000000000000000000000000000000000000000000000000000815250612078565b15610ed95781836000019073ffffffffffffffffffffffffffffffffffffffff16908173ffffffffffffffffffffffffffffffffffffffff16815250508383604001819052503483602001818152505060016002805490500183606001818152505034600760008282540192505081905550600160028054806001018281610d2091906121b7565b9160005260206000209060040201600086909190915060008201518160000160006101000a81548173ffffffffffffffffffffffffffffffffffffffff021916908373ffffffffffffffffffffffffffffffffffffffff160217905550602082015181600101556040820151816002019080519060200190610da39291906121e9565b506060820151816003015550505050610dde600360009054906101000a900473ffffffffffffffffffffffffffffffffffffffff16346106f4565b7fd006c5939a3d75ac710279c83a3632ef42cb33a853af1d0775410cb693e95cd6600360009054906101000a900473ffffffffffffffffffffffffffffffffffffffff168534604051808473ffffffffffffffffffffffffffffffffffffffff1673ffffffffffffffffffffffffffffffffffffffff16815260200180602001838152602001828103825284818151815260200191508051906020019080838360005b83811015610e9c578082015181840152602081019050610e81565b50505050905090810190601f168015610ec95780820380516001836020036101000a031916815260200191505b5094505050505060405180910390a15b5b5b50505050565b600181815481101515610ef057fe5b90600052602060002090600402016000915090508060000160009054906101000a900473ffffffffffffffffffffffffffffffffffffffff1690806001015490806002018054600181600116156101000203166002900480601f016020809104026020016040519081016040528092919081815260200182805460018160011615610100020316600290048015610fc85780601f10610f9d57610100808354040283529160200191610fc8565b820191906000526020600020905b815481529060010190602001808311610fab57829003601f168201915b5050505050908060030154905084565b600081815481101515610fe757fe5b90600052602060002090600402016000915090508060000160009054906101000a900473ffffffffffffffffffffffffffffffffffffffff1690806001015490806002018054600181600116156101000203166002900480601f0160208091040260200160405190810160405280929190818152602001828054600181600116156101000203166002900480156110bf5780601f10611094576101008083540402835291602001916110bf565b820191906000526020600020905b8154815290600101906020018083116110a257829003601f168201915b5050505050908060030154905084565b60065481565b60075481565b60006110e5612269565b6110ed612269565b60008086935085925083519150818351101561110857825191505b600090505b8181101561134b57828181518110151561112357fe5b9060200101517f010000000000000000000000000000000000000000000000000000000000000090047f0100000000000000000000000000000000000000000000000000000000000000027effffffffffffffffffffffffffffffffffffffffffffffffffffffffffffff1916848281518110151561119e57fe5b9060200101517f010000000000000000000000000000000000000000000000000000000000000090047f0100000000000000000000000000000000000000000000000000000000000000027effffffffffffffffffffffffffffffffffffffffffffffffffffffffffffff19161015611239577fffffffffffffffffffffffffffffffffffffffffffffffffffffffffffffffff9450611395565b828181518110151561124757fe5b9060200101517f010000000000000000000000000000000000000000000000000000000000000090047f0100000000000000000000000000000000000000000000000000000000000000027effffffffffffffffffffffffffffffffffffffffffffffffffffffffffffff191684828151811015156112c257fe5b9060200101517f010000000000000000000000000000000000000000000000000000000000000090047f0100000000000000000000000000000000000000000000000000000000000000027effffffffffffffffffffffffffffffffffffffffffffffffffffffffffffff1916111561133e5760019450611395565b808060010191505061110d565b82518451101561137d577fffffffffffffffffffffffffffffffffffffffffffffffffffffffffffffffff9450611395565b8251845111156113905760019450611395565b600094505b5050505092915050565b6009818154811015156113ae57fe5b90600052602060002090016000915090505481565b60055481565b6000806002600184018115156113db57fe5b0490508291505b8181101561140e5780915060028182858115156113fb57fe5b040181151561140657fe5b0490506113e2565b50919050565b60028181548110151561142357fe5b90600052602060002090600402016000915090508060000160009054906101000a900473ffffffffffffffffffffffffffffffffffffffff1690806001015490806002018054600181600116156101000203166002900480601f0160208091040260200160405190810160405280929190818152602001828054600181600116156101000203166002900480156114fb5780601f106114d0576101008083540402835291602001916114fb565b820191906000526020600020905b8154815290600101906020018083116114de57829003601f168201915b5050505050908060030154905084565b6000806000600360009054906101000a900473ffffffffffffffffffffffffffffffffffffffff1673ffffffffffffffffffffffffffffffffffffffff163373ffffffffffffffffffffffffffffffffffffffff1614151561156c57600080fd5b61164560048054600181600116156101000203166002900480601f0160208091040260200160405190810160405280929190818152602001828054600181600116156101000203166002900480156116055780601f106115da57610100808354040283529160200191611605565b820191906000526020600020905b8154815290600101906020018083116115e857829003601f168201915b50505050506040805190810160405280600181526020017f6100000000000000000000000000000000000000000000000000000000000000815250612078565b156116e857600754600654019150600090505b6000805490508110156116e3578482858381518110151561167557fe5b906020019060200201510281151561168957fe5b0492506116d660008281548110151561169e57fe5b906000526020600020906004020160000160009054906101000a900473ffffffffffffffffffffffffffffffffffffffff16846106f4565b8080600101915050611658565b6119de565b6117c160048054600181600116156101000203166002900480601f0160208091040260200160405190810160405280929190818152602001828054600181600116156101000203166002900480156117815780601f1061175657610100808354040283529160200191611781565b820191906000526020600020905b81548152906001019060200180831161176457829003601f168201915b50505050506040805190810160405280600181526020017f6200000000000000000000000000000000000000000000000000000000000000815250612078565b1561186457600754600554019150600090505b60018054905081101561185f57848285838151811015156117f157fe5b906020019060200201510281151561180557fe5b04925061185260008281548110151561181a57fe5b906000526020600020906004020160000160009054906101000a900473ffffffffffffffffffffffffffffffffffffffff16846106f4565b80806001019150506117d4565b6119dd565b61193d60048054600181600116156101000203166002900480601f0160208091040260200160405190810160405280929190818152602001828054600181600116156101000203166002900480156118fd5780601f106118d2576101008083540402835291602001916118fd565b820191906000526020600020905b8154815290600101906020018083116118e057829003601f168201915b50505050506040805190810160405280600181526020017f6300000000000000000000000000000000000000000000000000000000000000815250612078565b156119dc57600654600554019150600090505b6002805490508110156119db578482858381518110151561196d57fe5b906020019060200201510281151561198157fe5b0492506119ce60008281548110151561199657fe5b906000526020600020906004020160000160009054906101000a900473ffffffffffffffffffffffffffffffffffffffff16846106f4565b8080600101915050611950565b5b5b5b5050505050565b600080600080600080600360009054906101000a900473ffffffffffffffffffffffffffffffffffffffff1673ffffffffffffffffffffffffffffffffffffffff163373ffffffffffffffffffffffffffffffffffffffff16141515611a4a57600080fd5b8660049080519060200190611a6092919061227d565b5060009050611b3e60048054600181600116156101000203166002900480601f016020809104026020016040519081016040528092919081815260200182805460018160011615610100020316600290048015611afe5780601f10611ad357610100808354040283529160200191611afe565b820191906000526020600020905b815481529060010190602001808311611ae157829003601f168201915b50505050506040805190810160405280600181526020017f6100000000000000000000000000000000000000000000000000000000000000815250612078565b15611c4b576000805490509150600090505b600080549050811015611c4657611b86600082815481101515611b6f57fe5b906000526020600020906004020160030154612151565b9450600081815481101515611b9757fe5b90600052602060002090600402016001015493506064848602811515611bb957fe5b04925060098054806001018281611bd091906122fd565b91600052602060002090016000859091909150555082860195507fd8e7339235546f864ad2a556e0d662441fcb0e9539c0a922ff1abeeb54a72187868486886040518085815260200184815260200183815260200182815260200194505050505060405180910390a18080600101915050611b50565b61206f565b611d2460048054600181600116156101000203166002900480601f016020809104026020016040519081016040528092919081815260200182805460018160011615610100020316600290048015611ce45780601f10611cb957610100808354040283529160200191611ce4565b820191906000526020600020905b815481529060010190602001808311611cc757829003601f168201915b50505050506040805190810160405280600181526020017f6200000000000000000000000000000000000000000000000000000000000000815250612078565b15611e31576001805490509150600090505b600180549050811015611e2c57611d6c600182815481101515611d5557fe5b906000526020600020906004020160030154612151565b9450600181815481101515611d7d57fe5b90600052602060002090600402016001015493506064848602811515611d9f57fe5b04925060098054806001018281611db691906122fd565b91600052602060002090016000859091909150555082860195507fd8e7339235546f864ad2a556e0d662441fcb0e9539c0a922ff1abeeb54a72187868486886040518085815260200184815260200183815260200182815260200194505050505060405180910390a18080600101915050611d36565b61206e565b611f0a60048054600181600116156101000203166002900480601f016020809104026020016040519081016040528092919081815260200182805460018160011615610100020316600290048015611eca5780601f10611e9f57610100808354040283529160200191611eca565b820191906000526020600020905b815481529060010190602001808311611ead57829003601f168201915b50505050506040805190810160405280600181526020017f6300000000000000000000000000000000000000000000000000000000000000815250612078565b1561206d576002805490509150600090505b60028054905081101561201257611f52600282815481101515611f3b57fe5b906000526020600020906004020160030154612151565b9450600281815481101515611f6357fe5b90600052602060002090600402016001015493506064848602811515611f8557fe5b04925060098054806001018281611f9c91906122fd565b91600052602060002090016000859091909150555082860195507fd8e7339235546f864ad2a556e0d662441fcb0e9539c0a922ff1abeeb54a72187868486886040518085815260200184815260200183815260200182815260200194505050505060405180910390a18080600101915050611f1c565b61206c86600980548060200260200160405190810160405280929190818152602001828054801561206257602002820191906000526020600020905b81548152602001906001019080831161204e575b505050505061150b565b5b5b5b50505050505050565b6000816040518082805190602001908083835b6020831015156120b0578051825260208201915060208101905060208303925061208b565b6001836020036101000a038019825116818451168082178552505050505050905001915050604051809103902060001916836040518082805190602001908083835b60208310151561211757805182526020820191506020810190506020830392506120f2565b6001836020036101000a03801982511681845116808217855250505050505090500191505060405180910390206000191614905092915050565b6000606461215e836113c9565b600181151561216957fe5b04029050919050565b608060405190810160405280600073ffffffffffffffffffffffffffffffffffffffff168152602001600081526020016121aa612329565b8152602001600081525090565b8154818355818115116121e4576004028160040283600052602060002091820191016121e3919061233d565b5b505050565b828054600181600116156101000203166002900490600052602060002090601f016020900481019282601f1061222a57805160ff1916838001178555612258565b82800160010185558215612258579182015b8281111561225757825182559160200191906001019061223c565b5b50905061226591906123a3565b5090565b602060405190810160405280600081525090565b828054600181600116156101000203166002900490600052602060002090601f016020900481019282601f106122be57805160ff19168380011785556122ec565b828001600101855582156122ec579182015b828111156122eb5782518255916020019190600101906122d0565b5b5090506122f991906123a3565b5090565b8154818355818115116123245781836000526020600020918201910161232391906123a3565b5b505050565b602060405190810160405280600081525090565b6123a091905b8082111561239c57600080820160006101000a81549073ffffffffffffffffffffffffffffffffffffffff0219169055600182016000905560028201600061238b91906123c8565b600382016000905550600401612343565b5090565b90565b6123c591905b808211156123c15760008160009055506001016123a9565b5090565b90565b50805460018160011615610100020316600290046000825580601f106123ee575061240d565b601f01602090049060005260206000209081019061240c91906123a3565b5b505600a165627a7a72305820e0387bb9848651af021c40e55cce3960fe1621be38c95248e70c7e1f2a8a08e50029",
  "source": "pragma solidity ^0.4.21;\n\n\n//Welcome!\n//Before use this code, Please look into this code carefully, and make sure if it works exactly what you want. Since this code is dealing with Ethereum, using this code carelessly can cause losses in your fund.\n\n\n// Creator : wk\n// blog :\n// - https://brunch.co.kr/@bitcoin\n// - https://steemit.com/@icoreport\n//- https://steemit.com/@wklee\n//- https://thisiswk.com\n\n\n\ncontract Betvote {\n\n    struct EntityStruct {\n        // The address\n        address entityAddress;\n        // Amount of bet in wei\n        uint256 amount;\n        // you are betting to?\n        string betTo;\n        uint256 position;\n\n    }\n\n    EntityStruct[] public entityA;\n    EntityStruct[] public entityB;\n    EntityStruct[] public entityC;\n\n\n    // global variable\n//    @todo : less global variables\n\n    address owner;\n    string winner;\n    uint256 public totalFundA;\n    uint256 public totalFundB;\n    uint256 public totalFundC;\n    uint256 rewardRatio;\n    uint256[] public temporaryRatio_global;\n\n\n    // event results will be shown in dev console.\n    event winnerAnnounced(string winner);\n    event newBet(address _to, string _betTo, uint256 amount);\n\n\n//    @todo : comment, function and params\n    // Ref \"github.com/ethereum/dapp-bin/library/stringUtils.sol\";\n    function compare(string _a, string _b) public returns (int) {\n        bytes memory a = bytes(_a);\n        bytes memory b = bytes(_b);\n        uint minLength = a.length;\n        if (b.length < minLength) minLength = b.length;\n        //@todo unroll the loop into increments of 32 and do full 32 byte comparisons\n        for (uint i = 0; i < minLength; i ++)\n            if (a[i] < b[i])\n                return -1;\n            else if (a[i] > b[i])\n                return 1;\n        if (a.length < b.length)\n            return -1;\n        else if (a.length > b.length)\n            return 1;\n        else\n            return 0;\n    }\n\n\n    // using hash to compare strings\n    function compareStringsbyBytes(string s1, string s2) public pure returns(bool){\n        return keccak256(s1) == keccak256(s2);\n    }\n\n// constructor\n    function Betvote() public {\n        owner = msg.sender;\n    }\n\n\n\n    function getBet(string betTo) public payable {\n        EntityStruct memory newEntity;\n        require (msg.value > 0);\n        address userAddr = msg.sender;\n\n        if (compareStringsbyBytes(betTo, \"a\")){\n            // set entity data\n            newEntity.entityAddress = userAddr;\n            newEntity.betTo = betTo;\n            newEntity.amount = msg.value;\n            newEntity.position = entityA.length+1;\n\n            // add total fund\n            totalFundA = totalFundA + msg.value;\n            //push data entity to\n            entityA.push(newEntity)-1;\n            // event newBet(address _to, string _betTo, uint256 amount);\n            transferEther(owner, msg.value);\n            emit newBet(owner, betTo, msg.value);\n        }\n        else if (compareStringsbyBytes(betTo, \"b\")){\n            // set entity data\n            uint256 amount = msg.value;\n            newEntity.entityAddress = userAddr;\n            newEntity.betTo = betTo;\n            newEntity.amount = amount;\n            newEntity.position = entityB.length+1;\n            // add total fund\n            totalFundB += amount;\n            //push data entity to\n            entityB.push(newEntity)-1;\n            transferEther(owner, msg.value);//\n            emit newBet(owner, betTo, msg.value);\n        }\n        else if (compareStringsbyBytes(betTo, \"c\")){\n            // set entity data\n            newEntity.entityAddress = userAddr;\n            newEntity.betTo = betTo;\n            newEntity.amount = msg.value;\n            newEntity.position = entityC.length+1;\n            // add total fund\n            totalFundC += msg.value;\n            //push data entity to\n            entityC.push(newEntity)-1;\n            transferEther(owner, msg.value);\n            emit newBet(owner, betTo, msg.value);\n        }\n    }\n\n    function transferEther(address _to, uint256 amount) public payable {\n        _to.transfer(amount);\n    }\n\n    modifier ownerOnly {\n        require(msg.sender == owner);\n        _;\n    }\n\n\n\n    // Refers to \"https://github.com/ethereum/dapp-bin/pull/50\"\n    // gives floating point value????\n    function sqrt(uint x) public returns (uint y) {\n        uint z = (x + 1) / 2;\n        y = x;\n        while (z < y) {\n            y = z;\n            z = (x / z + z) / 2;\n        }\n    }\n\n    function calculateYourReward(uint256 position) internal returns(uint256){\n        // precision 100\n        return (1/sqrt(position))*100;\n\n    }\n\n\n    event setWinnerPrinter (uint256 sumTemporaryRatio, uint256 tempRatio, uint256 amount, uint256 Ratio100x);\n\n    function setWinner (string _winner) public payable ownerOnly{\n\n        winner =_winner;\n\n        uint256 sumTemporaryRatio;\n        uint256 Ratio100x;\n        uint256 amount;\n        uint256 tempRatio;\n        uint256 size;\n        uint i = 0;\n        // this returns int\n        if(compareStringsbyBytes(winner, \"a\")){\n            size = entityA.length;\n            for (i = 0; i<entityA.length; i++) {\n                // low as -2 digit\n                Ratio100x = calculateYourReward(entityA[i].position);\n                // more than 18 digits\n                amount = entityA[i].amount;\n                // take out the precision\n                tempRatio = ( Ratio100x * amount /100 );\n                temporaryRatio_global.push(tempRatio);\n                sumTemporaryRatio += tempRatio;\n\n                emit setWinnerPrinter (sumTemporaryRatio, tempRatio, amount, Ratio100x);\n            }\n        }\n        /// fill it in\n        else if(compareStringsbyBytes(winner, \"b\")){\n            size = entityB.length;\n            for (i = 0; i<entityB.length; i++) {\n                // low as -2 digit\n                Ratio100x = calculateYourReward(entityB[i].position);\n                // more than 18 digits\n                amount = entityB[i].amount;\n                // take out the precision\n                tempRatio = ( Ratio100x * amount /100 );\n                temporaryRatio_global.push(tempRatio);\n                sumTemporaryRatio += tempRatio;\n\n                emit setWinnerPrinter (sumTemporaryRatio, tempRatio, amount, Ratio100x);\n            }\n        }\n        else if(compareStringsbyBytes(winner, \"c\")){\n            size = entityC.length;\n            for (i = 0; i<entityC.length; i++) {\n                // low as -2 digit\n                Ratio100x = calculateYourReward(entityC[i].position);\n                // more than 18 digits\n                amount = entityC[i].amount;\n                // take out the precision\n                tempRatio = ( Ratio100x * amount /100 );\n                temporaryRatio_global.push(tempRatio);\n                sumTemporaryRatio += tempRatio;\n\n                emit setWinnerPrinter (sumTemporaryRatio, tempRatio, amount, Ratio100x);\n            }\n\n            distributeToWinner(sumTemporaryRatio, temporaryRatio_global);\n        }\n    }\n\n    function distributeToWinner( uint256 sumTemporaryRatio, uint256[] temporaryRatio ) public payable ownerOnly{\n        uint256 reward;\n        uint256 fund;\n        uint i;\n        //        require (msg.sender == owner);\n        if(compareStringsbyBytes(winner, \"a\")){\n            fund = totalFundB + totalFundC;\n            for (i = 0; i<entityA.length; i++) {\n                reward = ((temporaryRatio[i]*fund)/sumTemporaryRatio);\n                transferEther(entityA[i].entityAddress, reward);\n            }\n        }\n        else if(compareStringsbyBytes(winner, \"b\")){\n            fund = totalFundA + totalFundC;\n            for (i = 0; i<entityB.length; i++) {\n                reward = ((temporaryRatio[i]*fund)/sumTemporaryRatio);\n                transferEther(entityA[i].entityAddress, reward);\n            }\n\n        }\n        else if(compareStringsbyBytes(winner, \"c\")){\n            fund = totalFundA + totalFundB;\n            for (i = 0; i<entityC.length; i++) {\n                reward = ((temporaryRatio[i]*fund)/sumTemporaryRatio);\n                transferEther(entityA[i].entityAddress, reward);\n            }\n\n        }\n\n    }\n\n\n    function kill() internal ownerOnly {\n        selfdestruct(owner);\n    }\n\n\n\n// for test purposes\n// Testing purpose only.\n// @todo : should delete this before release\n// Sets total fund amount\n//    function testTotalFundSetter () public {\n//        totalFundB = totalFundA/2;\n//    }\n//\n//\n//    event balanceCheck(uint256 balance);\n//    function checkFundValue(address thisAddress){\n//\n//        emit balanceCheck(thisAddress.balance);\n//\n//    }\n//    function adder (string betTo) public payable{\n////        if (equal(betTo, \"a\")){\n//        if (compareStringsbyBytes(betTo, \"a\")){\n//\n//            totalFundA = totalFundA + msg.value;\n//\n//        }else{\n//\n//            totalFundA = totalFundA + 77777777777;\n//        }\n//    }\n//    event test_entity(address entityAddress, uint256 amount, string betTo, uint256 position);\n//\n//    function getEntityA () public {\n//        for (uint i = 0; i<entityA.length; i++) {\n//            emit test_entity(entityA[i].entityAddress, entityA[i].amount, entityA[i].betTo, entityA[i].position );\n//        }\n//    }\n//\n//    event fundValueEvent(uint256 fundA, uint256 fundB);\n//\n//    function getTotalFund () public {\n//        emit fundValueEvent( totalFundA, totalFundB );\n//    }\n//\n//\n//\n//    function test (uint256 amount) public {\n//\n//        entityA.push(EntityStruct(0x120Cf24523D9Ad268799be326818169c6f0737ba, amount, 'a', entityA.length))-1;\n//        totalFundA += amount;\n//        //        entityA.push(EntityStruct(0xCA35b7d915458EF540aDe6068dFe2F44E8fa733c, 1286217770049595958, 'a', entityA.length))-1;\n//\n//    }\n\n}\n",
  "sourcePath": "/Users/dennis/WK/WK-WorkSpace/CryptoDemocracy/truffle-dev/contracts/Betvote.sol",
  "compiler": {
    "name": "solc",
    "version": "0.4.21+commit.dfe3193c.Emscripten.clang"
  },
  "schemaVersion": "2.0.0",
  "updatedAt": "2018-04-29T13:47:28.523Z"
}